S0150000486172647761726550726F78792E73726563BF
S11300000C942A000C943C000C943C000C943C008E
S11300100C943C000C943C000C943C000C943C006C
S11300200C943C000C943C000C943C000C943C005C
S11300300C943C000C943C000C943C000C943C004C
S11300400C943C000C943C000C943C000C943C003C
S11300500C943C0011241FBECFE5D8E0DEBFCDBF19
S113006020E0A0E6B0E001C01D92A336B207E1F79C
S11300700E949D010C9408050C940000FF920F93BC
S11300801F93CF93DF930097C9F0EC01888100E6BA
S113009010E0F801808389818183FF24F394F28244
S11300A0C8010E94DE018A81F80180838B818183EB
S11300B0F282C8010E94DE0181E001C080E0DF918C
S11300C0CF911F910F91FF900895CF93DF930097E5
S11300D011F1EC018C81882319F0813061F015C095
S11300E06B8140E08A810E947702698141E08881C6
S11300F00E9477020AC0698140E088810E947702E9
S11301006B8141E08A810E9477026D8180E00E94C8
S1130110180381E001C080E0DF91CF910895FC01D4
S1130120DB01892B09F448C0109709F445C080818C
S113013091818B33910511F41C9210C08833910581
S113014019F481E08C930AC08533910519F482E097
S11301508C9304C0C29711F483E08C9382819381C1
S11301608B33910521F412961C92129716C0883392
S1130170910529F481E012968C9312970EC0853371
S1130180910529F482E012968C93129706C0C297C7
S113019021F483E012968C931297848111968C93A8
S11301A01197858113968C931397878115968C9359
S11301B01597868114968C930895DC01FB01892B95
S11301C009F456C0309709F453C08081811106C0E8
S11301D08BE390E011969C938E9317C0813031F499
S11301E088E390E011969C938E930FC0823031F493
S11301F085E390E011969C938E9307C0833029F495
S113020082E390E011969C938E938281811107C0C2
S11302108BE390E013969C938E9312971AC08130CF
S113022039F488E390E013969C938E93129711C04F
S1130230823039F485E390E013969C938E93129761
S113024008C0833031F482E390E013969C938E933C
S11302501297818114968C931497838115968C93AD
S11302601597858117968C931797848116968C938E
S11302700895FC01892B41F01382128211821082AD
S1130280148215821682178208950F93CF93DF93F9
S113029000D000D000D0CDB7DEB70097B1F0611523
S11302A0710599F04115510581F0FC01718360835A
S11302B05383428324830583BE016F5F7F4F0E9473
S11302C08F00CE0101960E943E0026960FB6F89448
S11302D0DEBF0FBECDBFDF91CF910F910895EF9296
S11302E0FF920F931F93CF93DF9300D000D000D0E1
S11302F0CDB7DEB70097A1F0F42EE62E8C01BE0137
S11303006F5F7F4F0E948F00ED82FE82BE016F5FA0
S11303107F4FC8010E94DD00CE0101960E94650056
S113032026960FB6F894DEBF0FBECDBFDF91CF91F6
S11303301F910F91FF90EF900895CF93DF93CDB766
S1130340DEB728970FB6F894DEBF0FBECDBFCE013F
S113035001960E94390101E020E04BE350E06BE399
S113036070E0CE0101960E9445014EE160E0CE01AD
S113037001960E946F0180E090E0DC0103C00196C9
S1130380A11DB11D803221EA920727E0A207B10521
S1130390B0F34EE161E0CE0101960E946F0180E06E
S11303A090E0DC0103C00196A11DB11D803221EA59
S11303B0920727E0A207B105B0F3D7CFFC019081E3
S11303C0943008F08EC08181883008F08CC0913060
S11303D041F138F0923009F444C0933009F461C01B
S11303E084C09281913071F44AB321E030E0B901C4
S11303F002C0660F771F8A95E2F7CB01842B8ABB74
S113040081E008954AB321E030E0B90102C0660FEB
S1130410771F8A95E2F7CB01809584238ABB80E01D
S113042008959281913071F447B321E030E0B9012D
S113043002C0660F771F8A95E2F7CB01842B87BB36
S113044081E0089547B321E030E0B90102C0660FAE
S1130450771F8A95E2F7CB018095842387BB81E0DF
S113046008959281913071F444B321E030E0B901F0
S113047002C0660F771F8A95E2F7CB01842B84BBF9
S113048081E0089544B321E030E0B90102C0660F71
S1130490771F8A95E2F7CB018095842384BB81E0A2
S11304A008959281913071F441B321E030E0B901B3
S11304B002C0660F771F8A95E2F7CB01842B81BBBC
S11304C081E0089541B321E030E0B90102C0660F34
S11304D0771F8A95E2F7CB018095842381BB81E065
S11304E0089580E0089580E0089580E008958430C0
S11304F008F078C0683008F077C0813011F130F02E
S11305008230D1F1833009F452C070C0413061F4BB
S11305102BB381E090E002C0880F991F6A95E2F73F
S1130520822B8BBB81E008952BB381E090E002C065
S1130530880F991F6A95E2F7809582238BBB81E02F
S11305400895413061F428B381E090E002C0880F3F
S1130550991F6A95E2F7822B88BB81E0089528B33E
S113056081E090E002C0880F991F6A95E2F78095B8
S1130570822388BB81E00895413061F425B381E092
S113058090E002C0880F991F6A95E2F7822B85BB21
S113059081E0089525B381E090E002C0880F991F9F
S11305A06A95E2F78095822385BB81E00895413006
S11305B061F422B381E090E002C0880F991F6A952C
S11305C0E2F7822B82BB81E0089522B381E090E0C0
S11305D002C0880F991F6A95E2F78095822382BB37
S11305E081E0089580E0089580E0089581E0089511
S11305F0882319F0813069F019C0E0E6F0E081E069
S1130600808393E091838283CF010E94DE0181E0A5
S11306100895E0E6F0E083E0808387E0818381E071
S11306208283CF010E94DE0181E0089580E0089575
S1130630CF93653608F04EC0C82F811122C083B70E
S1130640886483BF83B7816083BF83B7806283BFBD
S1130650611102C01CBE38C070E080E090E00E94CE
S11306600F042AE037ED43E250E40E949B0420E0AB
S113067030E040E85FE30E9471030E94DE036CBF38
S113068023C0813049F585B5886485BD85B5816011
S113069085BD85B5806285BD611102C013BC14C0DF
S11306A070E080E090E00E940F042AE037ED43E21E
S11306B050E40E949B0420E030E040E85FE30E94A5
S11306C071030E94DE0363BD8C2F0E94F802811126
S11306D005C005C080E003C080E001C081E0CF9187
S11306E008955058BB27AA270E9489030C946104DB
S11306F00E94530438F00E945A0420F039F49F3FBA
S113070019F426F40C9450040EF4E095E7FB0C94D1
S11307104A04E92F0E94720458F3BA176207730758
S11307208407950720F079F4A6F50C9494040EF44C
S1130730E0950B2EBA2FA02D0B01B90190010C01ED
S1130740CA01A0011124FF27591B99F0593F50F405
S1130750503E68F11A16F040A22F232F342F44275D
S1130760585FF3CF469537952795A795F040539555
S1130770C9F77EF41F16BA0B620B730B840BBAF025
S11307809150A1F0FF0FBB1F661F771F881FC2F790
S11307900EC0BA0F621F731F841F48F487957795A4
S11307A06795B795F7959E3F08F0B0CF9395880F5E
S11307B008F09927EE0F9795879508950E947A047B
S11307C088F09F5798F0B92F9927B751B0F0E1F00E
S11307D0660F771F881F991F1AF0BA95C9F714C0BE
S11307E0B13091F00E949404B1E008950C94940403
S11307F0672F782F8827B85F39F0B93FCCF38695F7
S113080077956795B395D9F73EF490958095709553
S113081061957F4F8F4F9F4F0895E89409C097FBD0
S11308203EF490958095709561957F4F8F4F9F4FC3
S11308309923A9F0F92F96E9BB279395F695879507
S113084077956795B795F111F8CFFAF4BB0F11F4CA
S113085060FF1BC06F5F7F4F8F4F9F4F16C0882371
S113086011F096E911C0772321F09EE8872F762FA7
S113087005C0662371F096E8862F70E060E02AF0E8
S11308809A95660F771F881FDAF7880F96958795D4
S113089097F9089597F99F6780E870E060E00895FC
S11308A09FEF80EC089500240A9416161706180684
S11308B00906089500240A94121613061406050660
S11308C00895092E0394000C11F4882352F0BB0FF1
S11308D040F4BF2B11F460FF04C06F5F7F4F8F4F54
S11308E09F4F089557FD9058440F551F59F05F3F8F
S11308F071F04795880F97FB991F61F09F3F79F03E
S113090087950895121613061406551FF2CF4695BF
S1130910F1DF08C0161617061806991FF1CF869541
S11309207105610508940895E894BB276627772725
S1130930CB0197F908950E94AE040C9461040E94BF
S1130940530438F00E945A0420F0952311F00C94BB
S11309504A040C94500411240C9495040E947204CB
S113096070F3959FC1F3950F50E0551F629FF001FE
S1130970729FBB27F00DB11D639FAA27F00DB11D17
S1130980AA1F649F6627B00DA11D661F829F2227A0
S1130990B00DA11D621F739FB00DA11D621F839F27
S11309A0A00D611D221F749F3327A00D611D231FFD
S11309B0849F600D211D822F762F6A2F11249F574B
S11309C050409AF0F1F088234AF0EE0FFF1FBB1F4E
S11309D0661F771F881F91505040A9F79E3F51050D
S11309E080F00C944A040C9495045F3FE4F3983E21
S11309F0D4F3869577956795B795F795E7959F5FB7
S1130A00C1F7FE2B880F911D9695879597F9089548
S1070A10F894FFCF84
S9030000FC
