:100000000C9443000C9460000C9460000C9460000D
:100010000C9460000C9405090C9460000C94600032
:100020000C9460000C943F090C9460000C947909C6
:100030000C94FE050C94870A0C94AE0A0C94D50A15
:100040000C9460000C9460000C9460000C946000B0
:100050000C946000C7067C077C077C07D406E10689
:100060007C07EE065607FB060807150722072F0731
:100070003C074907630770070D08180823082E0876
:10008000390844084F0811241FBECFE5D8E0DEBF71
:10009000CDBF10E0A0E6B0E0E8E0F6E102C00590D8
:1000A0000D92A836B107D9F721E0A8E6B0E001C06B
:1000B0001D92AF3CB207E1F70E9494040C94020B2E
:1000C0000C9400000E94B50541E061E083E00E94CD
:1000D00099046FEF82E00E941A0581E080937B0013
:1000E0008BE790E00E94A80081E006C0E82FF0E0D6
:1000F000E358FF4F80838F5F8B30C0F38EE790E033
:100100000E948F0082E00E9495008AE090E00E94A9
:10011000990081E008950E943C0481E00895909345
:10012000F4008093F30081E0089580935A0181E008
:100130000895909389008093880081E008956DE888
:1001400070E080E00E94530A81E080936B00089584
:10015000CF93DF93009761F1EC018881882381F0D0
:1001600080E00E943B0A81110DC060E00E945A0AA3
:100170004FE950E060E080E00E946F0A81E003C038
:1001800080E001C080E09981992341F081E00E94E4
:10019000C805882311F080E001C081E09A8199238D
:1001A00051F080E00E94B905882321F080E003C06F
:1001B00080E001C081E0DF91CF910895CF93DF937C
:1001C00090916200913021F0923009F452C15AC1ED
:1001D000EA0190916000973009F404C138F492303C
:1001E00009F447C0943009F482C04CC1993009F435
:1001F000BCC09F3F09F046C18091F500811116C037
:100200008091680082558093680081E08093F500BA
:1002100010928D006EEA80E00E944E0A20E040EDD0
:1002200050E060E070E082E00E94B30980918D00B0
:100230008E3F51F482E08093600010928D00109206
:10024000F5000E94C5081EC120E040ED50E060E0CE
:1002500070E082E00E94B309813009F013C18FEF92
:10026000809360001092F50010928D00109268004B
:1002700009C18091F500811116C0809168008450F9
:100280008093680081E08093F50010928D006CEF00
:1002900080E00E944E0A20E040ED50E060E070E017
:1002A00082E00E94B30980918D008E3F59F484E072
:1002B0008093600010928D001092F50082E00E9401
:1002C000C508E0C020E040ED50E060E070E082E072
:1002D0000E94B309813009F0D5C08FEF8093600090
:1002E0001092F50010928D0010926800CBC0909192
:1002F000F500911116C090916800980F90936800D6
:1003000091E09093F50010928D00682F80E00E949C
:100310004E0A20E040ED50E060E070E082E00E9494
:10032000B30980918D008E3F59F489E0809360007D
:1003300010928D001092F50082E00E94C508A2C0C4
:1003400020E040ED50E060E070E082E00E94B30900
:10035000813009F097C08FEF809360001092F50014
:1003600010928D00109268008DC08091F50081116F
:1003700015C010928D0080916800860F80936800F0
:1003800081E08093F50080E00E944E0A20E040ED7D
:1003900050E060E070E082E00E94B30980918D003F
:1003A0008E3F59F487E08093600010928D00109288
:1003B000F50082E00E94C50865C020E040ED50E0F5
:1003C00060E070E082E00E94B309813009F05AC019
:1003D0008FEF809360001092F50010928D001092C4
:1003E000680050C08091F50081110FC060916800D5
:1003F0000E944E0A20E040ED50E060E070E082E0B4
:100400000E94B30981E08093F50080918D008E3FBA
:1004100001F58FEF8093600010928D001092F5002F
:1004200082E00E94C5088091690090916A0001965F
:1004300090936A0080936900109268008C179D0762
:1004400009F510926A001092690082E080936200C0
:1004500019C020E040ED50E060E070E082E00E94D2
:10046000B309813079F48FEF809360001092F5002A
:1004700009C088E0809360001092F50010928D0012
:1004800010926800DF91CF9108951F93CF93DF936F
:10049000162FD42FC52F90916000943009F4BDC061
:1004A00048F4923009F447C008F07EC0913009F456
:1004B0005EC1DEC1963009F421C108F4E6C0973070
:1004C00009F4A9C19F3F09F0D3C18091F5008111C2
:1004D00013C06EEA0E944E0A20E040ED50E060E05A
:1004E00070E082E00E94B309809168008255809399
:1004F000680081E08093F50080918D008E3F51F47B
:1005000082E08093600010928D001092F5000E94AE
:10051000C508AEC120E040ED50E060E070E082E050
:100520000E94B309813009F0A3C18FEF809360006E
:100530001092F5009DC18091F500811115C01092B7
:100540008D006BEF0E944E0A20E040ED50E060E02D
:1005500070E082E00E94B30980916800855080932A
:10056000680081E08093F50080918D008E3F59F402
:1005700083E08093600010928D001092F50082E07D
:100580000E94C50875C120E040ED50E060E070E0D9
:1005900082E00E94B309813009F06AC11092F5002F
:1005A0008FEF8093600064C18091F500811115C0C8
:1005B00010928D0061E00E944E0A20E040ED50E074
:1005C00060E070E082E00E94B309809168008F5F74
:1005D0008093680081E08093F50080918D008E3FCC
:1005E00059F484E08093600010928D001092F50021
:1005F00082E00E94C5083CC120E040ED50E060E090
:1006000070E082E00E94B309813009F031C18FEFC0
:10061000809360001092F5002BC18091F50081114C
:1006200014C010928D000E944E0A20E040ED50E070
:1006300060E070E082E00E94B30980916800180FCA
:100640001093680081E08093F50080918D008E3FCB
:1006500059F485E08093600010928D001092F500AF
:1006600082E00E94C50804C120E040ED50E060E057
:1006700070E082E00E94B309813009F0F9C08FEF89
:10068000809360001092F500F3C08091F500811115
:1006900015C010928D00642F0E944E0A20E040ED9C
:1006A00050E060E070E082E00E94B3098091680051
:1006B000D80FD093680081E08093F50080918D0081
:1006C0008E3F59F486E08093600010928D00109266
:1006D000F50082E00E94C508CBC020E040ED50E06C
:1006E00060E070E082E00E94B309813009F0C0C090
:1006F0008FEF809360001092F500BAC08091F500F2
:10070000811115C010928D00652F0E944E0A20E0C5
:1007100040ED50E060E070E082E00E94B30980911B
:100720006800C80FC093680081E08093F500809155
:100730008D008E3F59F481E08093600010928D000F
:100740001092F50082E00E94C50892C020E040EDC2
:1007500050E060E070E082E00E94B309813009F06F
:1007600087C08FEF809360001092F50081C0909158
:10077000F500911131C08130B9F410928D0061E023
:1007800080E00E944E0A20E040ED50E060E070E022
:1007900082E00E94B309809168008F5F80936800B7
:1007A00081E08093F50018C08230B1F410928D0082
:1007B00062E080E00E944E0A20E040ED50E060E000
:1007C00070E082E00E94B309809168008E5F8093A0
:1007D000680081E08093F50080918D008E3F59F490
:1007E00087E08093600010928D001092F50082E007
:1007F0000E94C5083DC020E040ED50E060E070E0A0
:1008000082E00E94B309813099F58FEF80936000F8
:100810001092F5002DC08091F500811109C0109251
:100820008D00609168000E944E0A81E08093F5007F
:1008300080918D008E3F69F488E080936000109273
:100840008D001092F50082E00E94C50810926800A9
:100850000FC020E040ED50E060E070E082E00E94D8
:10086000B309813029F48FEF809360001092F50076
:10087000DF91CF911F9108952091F3003091F40002
:100880002115310509F44EC0809161008230A9F133
:100890008F3F21F0813009F045C014C0409188009D
:1008A0005091890060915A0181E00E944502809137
:1008B00060008830B9F58FEF8093600081E080930D
:1008C000610030C08091690090916A00F901E80FE1
:1008D000F91F4091880050918900608180915A01F0
:1008E0000E94DE00809160008830E1F48FEF8093F9
:1008F000600082E08093610015C0409188005091B3
:10090000890060915A0182E00E9445028091600056
:10091000883041F48FEF809360008093610081E024
:100920008093620080E008950E9462000E948B0024
:10093000FDCF843008F078C0683008F077C081308F
:1009400011F130F08230D1F1833009F452C070C01F
:1009500041110DC02AB381E090E002C0880F991FB9
:100960006A95E2F7809582238ABB81E008952AB3D5
:1009700081E090E002C0880F991F6A95E2F7822B10
:100980008ABB81E0089541110DC027B381E090E05A
:1009900002C0880F991F6A95E2F78095822387BB72
:1009A00081E0089527B381E090E002C0880F991F8D
:1009B0006A95E2F7822B87BB81E0089541110DC053
:1009C00024B381E090E002C0880F991F6A95E2F796
:1009D0008095822384BB81E0089524B381E090E078
:1009E00002C0880F991F6A95E2F7822B84BB81E0D1
:1009F000089541110DC021B381E090E002C0880F3D
:100A0000991F6A95E2F78095822381BB81E0089562
:100A100021B381E090E002C0880F991F6A95E2F748
:100A2000822B81BB81E0089580E0089580E00895E5
:100A300081E008958430A0F4813049F028F08230BC
:100A400049F0833051F00EC06ABB81E0089567BB66
:100A500081E0089564BB81E0089561BB81E0089561
:100A600080E0089581E00895843008F078C068300F
:100A700008F077C0813011F130F08230D1F183304D
:100A800009F452C070C0413061F42BB381E090E0B2
:100A900002C0880F991F6A95E2F7822B8BBB81E019
:100AA00008952BB381E090E002C0880F991F6A95EA
:100AB000E2F7809582238BBB81E00895413061F499
:100AC00028B381E090E002C0880F991F6A95E2F791
:100AD000822B88BB81E0089528B381E090E002C0BA
:100AE000880F991F6A95E2F78095822388BB81E081
:100AF0000895413061F425B381E090E002C0880F91
:100B0000991F6A95E2F7822B85BB81E0089525B392
:100B100081E090E002C0880F991F6A95E2F7809506
:100B2000822385BB81E00895413061F422B381E0E6
:100B300090E002C0880F991F6A95E2F7822B82BB72
:100B400081E0089522B381E090E002C0880F991FF0
:100B50006A95E2F78095822382BB81E0089580E068
:100B6000089580E0089581E008958FB780688FBF71
:100B7000089581110BC08091660081B98091640055
:100B800080B98091650086BF80E0089582E0089575
:100B9000823090F51DB88DB180618DB941E064E07F
:100BA00081E00E94990441E064E081E00E94340504
:100BB00041E067E081E00E94990441E065E081E066
:100BC0000E9499048DB184608DB98DB1877F8DB9F4
:100BD0008DB18F7D8DB98EB18E7F8EB98DB18260D2
:100BE0008DB98DB181608DB98EB18EB18FB18DB15E
:100BF00080648DB980E0089581E008951F920F927E
:100C00000FB60F9211242F933F934F935F936F93DF
:100C10007F938F939F93AF93BF93EF93FF93E09155
:100C20006C00F0916D00309709F00995FF91EF91FC
:100C3000BF91AF919F918F917F916F915F914F91F4
:100C40003F912F910F900FBE0F901F9018958330FA
:100C500008F030C2623108F02FC2813009F48CC034
:100C600020F0823009F4ACC129C2613069F028F06B
:100C7000623089F06330B1F023C283B7877F83BFCE
:100C800083B78F7B83BF14C083B7877F83BF83B74E
:100C9000806483BF0DC083B7886083BF83B78F7BB9
:100CA00083BF06C083B7886083BF83B7806483BF78
:100CB000233031054105510599F158F421153105CD
:100CC00041055105B9F02130310541055105E9F0E3
:100CD000F9C12630310541055105C1F127303105F3
:100CE00041055105F1F1253031054105510509F066
:100CF000E9C121C083B7816083BF83B78D7F83BF84
:100D000083B78B7F83BF80E0089583B78E7F83BFD7
:100D100083B7826083BF83B78B7F83BF81E00895F1
:100D200083B78E7F83BF83B7826083BF83B78460BE
:100D300083BF81E0089583B78E7F83BF83B78D7FA4
:100D400083BF83B7846083BF81E0089583B78160E8
:100D500083BF83B78D7F83BF83B7846083BF81E008
:100D6000089583B78E7F83BF83B78D7F83BF83B79B
:100D70008B7F83BF81E00895862F90E082319105BB
:100D800008F0BAC0FC01E65DFF4F0C94FC0A8FB579
:100D90008E7F8FBD8FB58D7F8FBD8EB5877F8EBDCA
:100DA0008EB58F7E8EBDA8C08FB581608FBD8FB58B
:100DB0008D7F8FBD8EB5877F8EBD8EB58F7E8EBDAC
:100DC0009BC08FB58E7F8FBD8FB582608FBD8EB576
:100DD000877F8EBD8EB58F7E8EBD8EC08FB58160B4
:100DE0008FBD8FB582608FBD8EB5877F8EBD8EB56E
:100DF0008F7E8EBD81C08FB58E7F8FBD8FB58D7F6D
:100E00008FBD8EB588608EBD8EB58F7E8EBD74C051
:100E10008FB581608FBD8FB58D7F8FBD8EB588609A
:100E20008EBD8EB58F7E8EBD67C08FB58E7F8FBD18
:100E30008FB582608FBD8EB588608EBD8EB58F7E7A
:100E40008EBD5AC08FB581608FBD8FB582608FBD5A
:100E50008EB588608EBD8EB58F7E8EBD4DC08FB530
:100E60008E7F8FBD8FB58D7F8FBD8EB5877F8EBDF9
:100E70008EB580618EBD40C08FB581608FBD8FB54E
:100E80008D7F8FBD8EB5877F8EBD8EB580618EBD07
:100E900033C08FB581608FBD8FB582608FBD8EB539
:100EA000877F8EBD8EB580618EBD26C08FB58E7F4B
:100EB0008FBD8FB58D7F8FBD8EB588608EBD8EB591
:100EC00080618EBD19C08FB58E7F8FBD8FB582605A
:100ED0008FBD8EB588608EBD8EB580618EBD0CC015
:100EE0008FB581608FBD8FB582608FBD8EB58860F4
:100EF0008EBD8EB580618EBD233031054105510513
:100F000099F158F42115310541055105B9F0213009
:100F1000310541055105E9F0D7C0263031054105BD
:100F20005105C1F12730310541055105F1F1253059
:100F300031054105510509F0C7C021C08EB581605A
:100F40008EBD8EB58D7F8EBD8EB58B7F8EBD81E0C3
:100F500008958EB58E7F8EBD8EB582608EBD8EB5A6
:100F60008B7F8EBD81E008958EB581608EBD8EB57C
:100F700082608EBD8EB58B7F8EBD81E008958EB56B
:100F80008E7F8EBD8EB58D7F8EBD8EB584608EBDFD
:100F900081E008958EB581608EBD8EB58D7F8EBD4A
:100FA0008EB584608EBD81E008958EB58E7F8EBD36
:100FB0008EB58D7F8EBD8EB58B7F8EBD81E0089501
:100FC000613069F028F0623089F06330B1F01BC005
:100FD00085B5877F85BD85B58F7B85BD14C085B5FB
:100FE000877F85BD85B5806485BD0DC085B588606A
:100FF00085BD85B58F7B85BD06C085B5886085BDFF
:1010000085B5806485BDF9013197E730F10508F0B9
:101010005DC0E45CFF4F0C94FC0A85B58E7F85BDF6
:1010200085B5826085BD85B58B7F85BD81E00895DE
:1010300085B5816085BD85B5826085BD85B58B7FB1
:1010400085BD81E0089585B58E7F85BD85B58D7F91
:1010500085BD85B5846085BD81E0089585B58160D5
:1010600085BD85B58D7F85BD85B5846085BD81E0F5
:10107000089585B58E7F85BD85B5826085BD85B5B2
:10108000846085BD81E0089585B5816085BD85B5A5
:10109000826085BD85B5846085BD81E0089585B594
:1010A0008E7F85BD85B58D7F85BD85B58B7F85BDE3
:1010B00081E0089580E0089580E0089580E008953B
:1010C00080E0089580E0089580E0089580E008952C
:1010D000813039F018F0823041F00AC062BF81E0FF
:1010E00008957DBD6CBD81E0089564BD81E00895E3
:1010F00080E00895813099F018F0823079F13DC098
:10110000662319F0613031F03AC089B7816089BF38
:1011100081E0089589B7826089BF81E008956230D7
:1011200099F018F4662331F02CC0633041F064303C
:1011300081F027C089B7846089BF81E0089589B7AD
:10114000886089BF81E0089589B7806189BF81E0A7
:10115000089589B7806289BF81E00895662319F0F8
:10116000613031F010C089B7806489BF81E0089593
:1011700089B7806889BF81E0089580E0089580E0A4
:10118000089580E0089580E008958330D0F581309F
:1011900079F018F08230B9F036C083B78E7F83BF04
:1011A00083B78D7F83BF83B78B7F83BF81E0089533
:1011B0008EB58E7F8EBD8EB58D7F8EBD8EB58B7FAD
:1011C0008EBD81E0089585B58E7F85BD85B58D7F07
:1011D00085BD85B58B7F85BD10926F001092700024
:1011E000109271001092720010926E00E0916300F4
:1011F000F0E0E154FE4F10828FEF8093630081E0B6
:10120000089580E0089580E008951F920F920FB630
:101210000F9211242F933F934F935F936F937F937C
:101220008F939F93AF93BF93EF93FF936FEF70E014
:1012300082E00E94680880916F0090917000A091F8
:101240007100B09172000196A11DB11D80936F00D5
:1012500090937000A0937100B0937200FF91EF9192
:10126000BF91AF919F918F917F916F915F914F91BE
:101270003F912F910F900FBE0F901F9018951F92C6
:101280000F920FB60F9211242F933F934F935F93BA
:101290006F937F938F939F93AF93BF93EF93FF933E
:1012A0006FEF70E081E00E94680880917300909178
:1012B0007400A0917500B09176000196A11DB11D3A
:1012C0008093730090937400A0937500B0937600A0
:1012D000FF91EF91BF91AF919F918F917F916F910E
:1012E0005F914F913F912F910F900FBE0F901F90E4
:1012F00018951F920F920FB60F9211242F933F93C0
:101300004F935F936F937F938F939F93AF93BF930D
:10131000EF93FF936FEF70E080E00E946808809188
:10132000770090917800A0917900B0917A000196B1
:10133000A11DB11D8093770090937800A093790050
:10134000B0937A00FF91EF91BF91AF919F918F91F0
:101350007F916F915F914F913F912F910F900FBEB1
:101360000F901F901895CF92DF92EF92FF92CF933C
:101370006A017B01C22F823009F060C080916E004B
:10138000811123C06FEF70E082E00E94680860E086
:1013900082E00E947A0821E030E040E050E060E026
:1013A00082E00E94270681E080936E0080E00BC0FF
:1013B000E82FF0E0E154FE4F9081992319F08093DB
:1013C000630003C08F5F8A3098F380916F00909123
:1013D0007000A0917100B0917200C816D906EA069B
:1013E000FB0680F4809163008C130CC082E00E94A5
:1013F000C50829E040E050E0BA0182E00E94B3094C
:10140000C1E021C080916300C81739F0EC2FF0E0F3
:10141000E154FE4FC082C3E016C040916F0050916E
:10142000700060917100709172004C155D056E0541
:101430007F0530F4C81731F0C0E005C0C0E003C03C
:10144000C0E001C0C2E0809163008F3F69F482E098
:101450000E94C50810926F001092700010927100E7
:101460001092720010926E008C2FCF91FF90EF902F
:10147000DF90CF9008958AB180618AB98AB188607F
:101480008AB98BB18D7F8BB98AB18B7F8AB980B5D0
:10149000866880BD83E389B980E008956CB95D9B5F
:1014A000FECF80E008955F9BFECF8CB1FB0180836F
:1014B00080E00895811111C0613041F018F0623070
:1014C00049F00BC08AB180688AB907C08AB18064CC
:1014D0008AB903C08AB180628AB980E00895811117
:1014E00014C0613049F018F0623059F00EC05093CA
:1014F000CA014093C90109C05093CC014093CB016C
:1015000004C05093CE014093CD0180E008951F9216
:101510000F920FB60F9211242F933F934F935F9327
:101520006F937F938F939F93AF93BF93EF93FF93AB
:10153000E091C901F091CA010995FF91EF91BF9126
:10154000AF919F918F917F916F915F914F913F915B
:101550002F910F900FBE0F901F9018951F920F9212
:101560000FB60F9211242F933F934F935F936F9376
:101570007F938F939F93AF93BF93EF93FF93E091EC
:10158000CD01F091CE010995FF91EF91BF91AF91FF
:101590009F918F917F916F915F914F913F912F918B
:1015A0000F900FBE0F901F9018951F920F920FB6BD
:1015B0000F9211242F933F934F935F936F937F93D9
:1015C0008F939F93AF93BF93EF93FF93E091CB01E2
:1015D000F091CC010995FF91EF91BF91AF919F914F
:1015E0008F917F916F915F914F913F912F910F90CC
:1015F0000FBE0F901F901895EE0FFF1F0590F491EE
:08160000E02D0994F894FFCFDE
:08160800FFFF01FF07040300CE
:00000001FF
